{
  "_format": "hh-sol-artifact-1",
  "contractName": "EternalNFT",
  "sourceName": "contracts/EternalNFT.sol",
  "abi": [
    {
      "inputs": [],
      "stateMutability": "nonpayable",
      "type": "constructor"
    },
    {
      "anonymous": false,
      "inputs": [
        {
          "indexed": true,
          "internalType": "address",
          "name": "owner",
          "type": "address"
        },
        {
          "indexed": true,
          "internalType": "address",
          "name": "approved",
          "type": "address"
        },
        {
          "indexed": true,
          "internalType": "uint256",
          "name": "tokenId",
          "type": "uint256"
        }
      ],
      "name": "Approval",
      "type": "event"
    },
    {
      "anonymous": false,
      "inputs": [
        {
          "indexed": true,
          "internalType": "address",
          "name": "owner",
          "type": "address"
        },
        {
          "indexed": true,
          "internalType": "address",
          "name": "operator",
          "type": "address"
        },
        {
          "indexed": false,
          "internalType": "bool",
          "name": "approved",
          "type": "bool"
        }
      ],
      "name": "ApprovalForAll",
      "type": "event"
    },
    {
      "anonymous": false,
      "inputs": [
        {
          "indexed": true,
          "internalType": "address",
          "name": "from",
          "type": "address"
        },
        {
          "indexed": true,
          "internalType": "address",
          "name": "to",
          "type": "address"
        },
        {
          "indexed": true,
          "internalType": "uint256",
          "name": "tokenId",
          "type": "uint256"
        }
      ],
      "name": "Transfer",
      "type": "event"
    },
    {
      "inputs": [
        {
          "internalType": "address",
          "name": "to",
          "type": "address"
        },
        {
          "internalType": "uint256",
          "name": "tokenId",
          "type": "uint256"
        }
      ],
      "name": "approve",
      "outputs": [],
      "stateMutability": "nonpayable",
      "type": "function"
    },
    {
      "inputs": [
        {
          "internalType": "address",
          "name": "owner",
          "type": "address"
        }
      ],
      "name": "balanceOf",
      "outputs": [
        {
          "internalType": "uint256",
          "name": "",
          "type": "uint256"
        }
      ],
      "stateMutability": "view",
      "type": "function"
    },
    {
      "inputs": [],
      "name": "collectionName",
      "outputs": [
        {
          "internalType": "string",
          "name": "",
          "type": "string"
        }
      ],
      "stateMutability": "view",
      "type": "function"
    },
    {
      "inputs": [],
      "name": "collectionSymbol",
      "outputs": [
        {
          "internalType": "string",
          "name": "",
          "type": "string"
        }
      ],
      "stateMutability": "view",
      "type": "function"
    },
    {
      "inputs": [],
      "name": "createEternalNFT",
      "outputs": [
        {
          "internalType": "uint256",
          "name": "",
          "type": "uint256"
        }
      ],
      "stateMutability": "nonpayable",
      "type": "function"
    },
    {
      "inputs": [
        {
          "internalType": "uint256",
          "name": "tokenId",
          "type": "uint256"
        }
      ],
      "name": "getApproved",
      "outputs": [
        {
          "internalType": "address",
          "name": "",
          "type": "address"
        }
      ],
      "stateMutability": "view",
      "type": "function"
    },
    {
      "inputs": [
        {
          "internalType": "address",
          "name": "owner",
          "type": "address"
        },
        {
          "internalType": "address",
          "name": "operator",
          "type": "address"
        }
      ],
      "name": "isApprovedForAll",
      "outputs": [
        {
          "internalType": "bool",
          "name": "",
          "type": "bool"
        }
      ],
      "stateMutability": "view",
      "type": "function"
    },
    {
      "inputs": [],
      "name": "name",
      "outputs": [
        {
          "internalType": "string",
          "name": "",
          "type": "string"
        }
      ],
      "stateMutability": "view",
      "type": "function"
    },
    {
      "inputs": [
        {
          "internalType": "uint256",
          "name": "tokenId",
          "type": "uint256"
        }
      ],
      "name": "ownerOf",
      "outputs": [
        {
          "internalType": "address",
          "name": "",
          "type": "address"
        }
      ],
      "stateMutability": "view",
      "type": "function"
    },
    {
      "inputs": [
        {
          "internalType": "uint256",
          "name": "tokenId",
          "type": "uint256"
        }
      ],
      "name": "pickFirstWord",
      "outputs": [
        {
          "internalType": "string",
          "name": "",
          "type": "string"
        }
      ],
      "stateMutability": "view",
      "type": "function"
    },
    {
      "inputs": [
        {
          "internalType": "uint256",
          "name": "tokenId",
          "type": "uint256"
        }
      ],
      "name": "pickSecondWord",
      "outputs": [
        {
          "internalType": "string",
          "name": "",
          "type": "string"
        }
      ],
      "stateMutability": "view",
      "type": "function"
    },
    {
      "inputs": [
        {
          "internalType": "uint256",
          "name": "tokenId",
          "type": "uint256"
        }
      ],
      "name": "pickThirdWord",
      "outputs": [
        {
          "internalType": "string",
          "name": "",
          "type": "string"
        }
      ],
      "stateMutability": "view",
      "type": "function"
    },
    {
      "inputs": [
        {
          "internalType": "address",
          "name": "from",
          "type": "address"
        },
        {
          "internalType": "address",
          "name": "to",
          "type": "address"
        },
        {
          "internalType": "uint256",
          "name": "tokenId",
          "type": "uint256"
        }
      ],
      "name": "safeTransferFrom",
      "outputs": [],
      "stateMutability": "nonpayable",
      "type": "function"
    },
    {
      "inputs": [
        {
          "internalType": "address",
          "name": "from",
          "type": "address"
        },
        {
          "internalType": "address",
          "name": "to",
          "type": "address"
        },
        {
          "internalType": "uint256",
          "name": "tokenId",
          "type": "uint256"
        },
        {
          "internalType": "bytes",
          "name": "_data",
          "type": "bytes"
        }
      ],
      "name": "safeTransferFrom",
      "outputs": [],
      "stateMutability": "nonpayable",
      "type": "function"
    },
    {
      "inputs": [
        {
          "internalType": "address",
          "name": "operator",
          "type": "address"
        },
        {
          "internalType": "bool",
          "name": "approved",
          "type": "bool"
        }
      ],
      "name": "setApprovalForAll",
      "outputs": [],
      "stateMutability": "nonpayable",
      "type": "function"
    },
    {
      "inputs": [
        {
          "internalType": "bytes4",
          "name": "interfaceId",
          "type": "bytes4"
        }
      ],
      "name": "supportsInterface",
      "outputs": [
        {
          "internalType": "bool",
          "name": "",
          "type": "bool"
        }
      ],
      "stateMutability": "view",
      "type": "function"
    },
    {
      "inputs": [],
      "name": "symbol",
      "outputs": [
        {
          "internalType": "string",
          "name": "",
          "type": "string"
        }
      ],
      "stateMutability": "view",
      "type": "function"
    },
    {
      "inputs": [
        {
          "internalType": "uint256",
          "name": "tokenId",
          "type": "uint256"
        }
      ],
      "name": "tokenURI",
      "outputs": [
        {
          "internalType": "string",
          "name": "",
          "type": "string"
        }
      ],
      "stateMutability": "view",
      "type": "function"
    },
    {
      "inputs": [
        {
          "internalType": "address",
          "name": "from",
          "type": "address"
        },
        {
          "internalType": "address",
          "name": "to",
          "type": "address"
        },
        {
          "internalType": "uint256",
          "name": "tokenId",
          "type": "uint256"
        }
      ],
      "name": "transferFrom",
      "outputs": [],
      "stateMutability": "nonpayable",
      "type": "function"
    }
  ],
  "bytecode": "0x608060405260405180610160016040528061012f8152602001620041c961012f9139600a9080519060200190620000389291906200079c565b506040518060e001604052806040518060400160405280600481526020017f466972650000000000000000000000000000000000000000000000000000000081525081526020016040518060400160405280600481526020017f57696e640000000000000000000000000000000000000000000000000000000081525081526020016040518060400160405280600481526020017f576176650000000000000000000000000000000000000000000000000000000081525081526020016040518060400160405280600581526020017f456172746800000000000000000000000000000000000000000000000000000081525081526020016040518060400160405280600781526020017f5468756e6465720000000000000000000000000000000000000000000000000081525081526020016040518060400160405280600581526020017f537061636500000000000000000000000000000000000000000000000000000081525081526020016040518060400160405280600481526020017f54696d6500000000000000000000000000000000000000000000000000000000815250815250600b906007620001f19291906200082d565b506040518060e001604052806040518060400160405280600581526020017f53776f726400000000000000000000000000000000000000000000000000000081525081526020016040518060400160405280600581526020017f537065617200000000000000000000000000000000000000000000000000000081525081526020016040518060400160405280600681526020017f536869656c64000000000000000000000000000000000000000000000000000081525081526020016040518060400160405280600681526020017f48616d6d6572000000000000000000000000000000000000000000000000000081525081526020016040518060400160405280600581526020017f536162657200000000000000000000000000000000000000000000000000000081525081526020016040518060400160405280600381526020017f417865000000000000000000000000000000000000000000000000000000000081525081526020016040518060400160405280600381526020017f426f770000000000000000000000000000000000000000000000000000000000815250815250600c906007620003aa9291906200082d565b506040518060e001604052806040518060400160405280600481526020017f4c6f72640000000000000000000000000000000000000000000000000000000081525081526020016040518060400160405280600481526020017f4b696e670000000000000000000000000000000000000000000000000000000081525081526020016040518060400160405280600781526020017f456d7065726f720000000000000000000000000000000000000000000000000081525081526020016040518060400160405280600981526020017f56656e657261626c65000000000000000000000000000000000000000000000081525081526020016040518060400160405280600881526020017f416e636573746f7200000000000000000000000000000000000000000000000081525081526020016040518060400160405280600581526020017f5361696e7400000000000000000000000000000000000000000000000000000081525081526020016040518060400160405280600381526020017f476f640000000000000000000000000000000000000000000000000000000000815250815250600d906007620005639291906200082d565b503480156200057157600080fd5b506040518060400160405280600a81526020017f457465726e616c4e4654000000000000000000000000000000000000000000008152506040518060400160405280600481526020017f454e4654000000000000000000000000000000000000000000000000000000008152508160009080519060200190620005f69291906200079c565b5080600190805190602001906200060f9291906200079c565b505050620006226200066860201b60201c565b60089080519060200190620006399291906200079c565b506200064a6200070260201b60201c565b60099080519060200190620006619291906200079c565b5062000986565b606060008054620006799062000950565b80601f0160208091040260200160405190810160405280929190818152602001828054620006a79062000950565b8015620006f85780601f10620006cc57610100808354040283529160200191620006f8565b820191906000526020600020905b815481529060010190602001808311620006da57829003601f168201915b5050505050905090565b606060018054620007139062000950565b80601f0160208091040260200160405190810160405280929190818152602001828054620007419062000950565b8015620007925780601f10620007665761010080835404028352916020019162000792565b820191906000526020600020905b8154815290600101906020018083116200077457829003601f168201915b5050505050905090565b828054620007aa9062000950565b90600052602060002090601f016020900481019282620007ce57600085556200081a565b82601f10620007e957805160ff19168380011785556200081a565b828001600101855582156200081a579182015b8281111562000819578251825591602001919060010190620007fc565b5b50905062000829919062000894565b5090565b82805482825590600052602060002090810192821562000881579160200282015b82811115620008805782518290805190602001906200086f9291906200079c565b50916020019190600101906200084e565b5b509050620008909190620008b3565b5090565b5b80821115620008af57600081600090555060010162000895565b5090565b5b80821115620008d75760008181620008cd9190620008db565b50600101620008b4565b5090565b508054620008e99062000950565b6000825580601f10620008fd57506200091e565b601f0160209004906000526020600020908101906200091d919062000894565b5b50565b7f4e487b7100000000000000000000000000000000000000000000000000000000600052602260045260246000fd5b600060028204905060018216806200096957607f821691505b6020821081141562000980576200097f62000921565b5b50919050565b61383380620009966000396000f3fe608060405234801561001057600080fd5b50600436106101215760003560e01c80636352211e116100ad578063c630338611610071578063c63033861461031a578063c87b56dd1461034a578063e2d2c3081461037a578063e5326ab1146103aa578063e985e9c5146103c857610121565b80636352211e1461026457806370a082311461029457806395d89b41146102c4578063a22cb465146102e2578063b88d4fde146102fe57610121565b806323b872dd116100f457806323b872dd146101c05780632f39352a146101dc5780633330880e146101fa5780633bad0d361461021857806342842e0e1461024857610121565b806301ffc9a71461012657806306fdde0314610156578063081812fc14610174578063095ea7b3146101a4575b600080fd5b610140600480360381019061013b9190612134565b6103f8565b60405161014d919061217c565b60405180910390f35b61015e6104da565b60405161016b9190612230565b60405180910390f35b61018e60048036038101906101899190612288565b61056c565b60405161019b91906122f6565b60405180910390f35b6101be60048036038101906101b9919061233d565b6105f1565b005b6101da60048036038101906101d5919061237d565b610709565b005b6101e4610769565b6040516101f19190612230565b60405180910390f35b6102026107f7565b60405161020f91906123df565b60405180910390f35b610232600480360381019061022d9190612288565b610906565b60405161023f9190612230565b60405180910390f35b610262600480360381019061025d919061237d565b6109fe565b005b61027e60048036038101906102799190612288565b610a1e565b60405161028b91906122f6565b60405180910390f35b6102ae60048036038101906102a991906123fa565b610ad0565b6040516102bb91906123df565b60405180910390f35b6102cc610b88565b6040516102d99190612230565b60405180910390f35b6102fc60048036038101906102f79190612453565b610c1a565b005b610318600480360381019061031391906125c8565b610c30565b005b610334600480360381019061032f9190612288565b610c92565b6040516103419190612230565b60405180910390f35b610364600480360381019061035f9190612288565b610d8a565b6040516103719190612230565b60405180910390f35b610394600480360381019061038f9190612288565b610edc565b6040516103a19190612230565b60405180910390f35b6103b2610fd4565b6040516103bf9190612230565b60405180910390f35b6103e260048036038101906103dd919061264b565b611062565b6040516103ef919061217c565b60405180910390f35b60007f80ac58cd000000000000000000000000000000000000000000000000000000007bffffffffffffffffffffffffffffffffffffffffffffffffffffffff1916827bffffffffffffffffffffffffffffffffffffffffffffffffffffffff191614806104c357507f5b5e139f000000000000000000000000000000000000000000000000000000007bffffffffffffffffffffffffffffffffffffffffffffffffffffffff1916827bffffffffffffffffffffffffffffffffffffffffffffffffffffffff1916145b806104d357506104d2826110f6565b5b9050919050565b6060600080546104e9906126ba565b80601f0160208091040260200160405190810160405280929190818152602001828054610515906126ba565b80156105625780601f1061053757610100808354040283529160200191610562565b820191906000526020600020905b81548152906001019060200180831161054557829003601f168201915b5050505050905090565b600061057782611160565b6105b6576040517f08c379a00000000000000000000000000000000000000000000000000000000081526004016105ad9061275e565b60405180910390fd5b6004600083815260200190815260200160002060009054906101000a900473ffffffffffffffffffffffffffffffffffffffff169050919050565b60006105fc82610a1e565b90508073ffffffffffffffffffffffffffffffffffffffff168373ffffffffffffffffffffffffffffffffffffffff16141561066d576040517f08c379a0000000000000000000000000000000000000000000000000000000008152600401610664906127f0565b60405180910390fd5b8073ffffffffffffffffffffffffffffffffffffffff1661068c6111cc565b73ffffffffffffffffffffffffffffffffffffffff1614806106bb57506106ba816106b56111cc565b611062565b5b6106fa576040517f08c379a00000000000000000000000000000000000000000000000000000000081526004016106f190612882565b60405180910390fd5b61070483836111d4565b505050565b61071a6107146111cc565b8261128d565b610759576040517f08c379a000000000000000000000000000000000000000000000000000000000815260040161075090612914565b60405180910390fd5b61076483838361136b565b505050565b60098054610776906126ba565b80601f01602080910402602001604051908101604052809291908181526020018280546107a2906126ba565b80156107ef5780601f106107c4576101008083540402835291602001916107ef565b820191906000526020600020905b8154815290600101906020018083116107d257829003601f168201915b505050505081565b60008061080460076115d2565b9050600061081182610906565b9050600061081e83610c92565b9050600061082b84610edc565b9050600083838360405160200161084493929190612970565b60405160208183030381529060405290506000600a85858560405160200161086f9493929190612a81565b604051602081830303815290604052905060006108b48361088f846115e0565b6040516020016108a0929190612c20565b6040516020818303038152906040526115e0565b90506000816040516020016108c99190612cb1565b60405160208183030381529060405290506108e43389611778565b6108ee8882611796565b6108f8600761180a565b879850505050505050505090565b6060600061093a61091684611820565b6040516020016109269190612d1f565b604051602081830303815290604052611981565b9050600b805490508161094d9190612d70565b9050600b818154811061096357610962612da1565b5b906000526020600020018054610978906126ba565b80601f01602080910402602001604051908101604052809291908181526020018280546109a4906126ba565b80156109f15780601f106109c6576101008083540402835291602001916109f1565b820191906000526020600020905b8154815290600101906020018083116109d457829003601f168201915b5050505050915050919050565b610a1983838360405180602001604052806000815250610c30565b505050565b6000806002600084815260200190815260200160002060009054906101000a900473ffffffffffffffffffffffffffffffffffffffff169050600073ffffffffffffffffffffffffffffffffffffffff168173ffffffffffffffffffffffffffffffffffffffff161415610ac7576040517f08c379a0000000000000000000000000000000000000000000000000000000008152600401610abe90612e42565b60405180910390fd5b80915050919050565b60008073ffffffffffffffffffffffffffffffffffffffff168273ffffffffffffffffffffffffffffffffffffffff161415610b41576040517f08c379a0000000000000000000000000000000000000000000000000000000008152600401610b3890612ed4565b60405180910390fd5b600360008373ffffffffffffffffffffffffffffffffffffffff1673ffffffffffffffffffffffffffffffffffffffff168152602001908152602001600020549050919050565b606060018054610b97906126ba565b80601f0160208091040260200160405190810160405280929190818152602001828054610bc3906126ba565b8015610c105780601f10610be557610100808354040283529160200191610c10565b820191906000526020600020905b815481529060010190602001808311610bf357829003601f168201915b5050505050905090565b610c2c610c256111cc565b83836119b4565b5050565b610c41610c3b6111cc565b8361128d565b610c80576040517f08c379a0000000000000000000000000000000000000000000000000000000008152600401610c7790612914565b60405180910390fd5b610c8c84848484611b21565b50505050565b60606000610cc6610ca284611820565b604051602001610cb29190612f40565b604051602081830303815290604052611981565b9050600c8054905081610cd99190612d70565b9050600c8181548110610cef57610cee612da1565b5b906000526020600020018054610d04906126ba565b80601f0160208091040260200160405190810160405280929190818152602001828054610d30906126ba565b8015610d7d5780601f10610d5257610100808354040283529160200191610d7d565b820191906000526020600020905b815481529060010190602001808311610d6057829003601f168201915b5050505050915050919050565b6060610d9582611160565b610dd4576040517f08c379a0000000000000000000000000000000000000000000000000000000008152600401610dcb90612fd4565b60405180910390fd5b6000600660008481526020019081526020016000208054610df4906126ba565b80601f0160208091040260200160405190810160405280929190818152602001828054610e20906126ba565b8015610e6d5780601f10610e4257610100808354040283529160200191610e6d565b820191906000526020600020905b815481529060010190602001808311610e5057829003601f168201915b505050505090506000610e7e611b7d565b9050600081511415610e94578192505050610ed7565b600082511115610ec9578082604051602001610eb1929190612ff4565b60405160208183030381529060405292505050610ed7565b610ed284611b94565b925050505b919050565b60606000610f10610eec84611820565b604051602001610efc9190613064565b604051602081830303815290604052611981565b9050600d8054905081610f239190612d70565b9050600d8181548110610f3957610f38612da1565b5b906000526020600020018054610f4e906126ba565b80601f0160208091040260200160405190810160405280929190818152602001828054610f7a906126ba565b8015610fc75780601f10610f9c57610100808354040283529160200191610fc7565b820191906000526020600020905b815481529060010190602001808311610faa57829003601f168201915b5050505050915050919050565b60088054610fe1906126ba565b80601f016020809104026020016040519081016040528092919081815260200182805461100d906126ba565b801561105a5780601f1061102f5761010080835404028352916020019161105a565b820191906000526020600020905b81548152906001019060200180831161103d57829003601f168201915b505050505081565b6000600560008473ffffffffffffffffffffffffffffffffffffffff1673ffffffffffffffffffffffffffffffffffffffff16815260200190815260200160002060008373ffffffffffffffffffffffffffffffffffffffff1673ffffffffffffffffffffffffffffffffffffffff16815260200190815260200160002060009054906101000a900460ff16905092915050565b60007f01ffc9a7000000000000000000000000000000000000000000000000000000007bffffffffffffffffffffffffffffffffffffffffffffffffffffffff1916827bffffffffffffffffffffffffffffffffffffffffffffffffffffffff1916149050919050565b60008073ffffffffffffffffffffffffffffffffffffffff166002600084815260200190815260200160002060009054906101000a900473ffffffffffffffffffffffffffffffffffffffff1673ffffffffffffffffffffffffffffffffffffffff1614159050919050565b600033905090565b816004600083815260200190815260200160002060006101000a81548173ffffffffffffffffffffffffffffffffffffffff021916908373ffffffffffffffffffffffffffffffffffffffff160217905550808273ffffffffffffffffffffffffffffffffffffffff1661124783610a1e565b73ffffffffffffffffffffffffffffffffffffffff167f8c5be1e5ebec7d5bd14f71427d1e84f3dd0314c0f7b2291e5b200ac8c7c3b92560405160405180910390a45050565b600061129882611160565b6112d7576040517f08c379a00000000000000000000000000000000000000000000000000000000081526004016112ce906130f8565b60405180910390fd5b60006112e283610a1e565b90508073ffffffffffffffffffffffffffffffffffffffff168473ffffffffffffffffffffffffffffffffffffffff16148061135157508373ffffffffffffffffffffffffffffffffffffffff166113398461056c565b73ffffffffffffffffffffffffffffffffffffffff16145b8061136257506113618185611062565b5b91505092915050565b8273ffffffffffffffffffffffffffffffffffffffff1661138b82610a1e565b73ffffffffffffffffffffffffffffffffffffffff16146113e1576040517f08c379a00000000000000000000000000000000000000000000000000000000081526004016113d89061318a565b60405180910390fd5b600073ffffffffffffffffffffffffffffffffffffffff168273ffffffffffffffffffffffffffffffffffffffff161415611451576040517f08c379a00000000000000000000000000000000000000000000000000000000081526004016114489061321c565b60405180910390fd5b61145c838383611c3b565b6114676000826111d4565b6001600360008573ffffffffffffffffffffffffffffffffffffffff1673ffffffffffffffffffffffffffffffffffffffff16815260200190815260200160002060008282546114b7919061326b565b925050819055506001600360008473ffffffffffffffffffffffffffffffffffffffff1673ffffffffffffffffffffffffffffffffffffffff168152602001908152602001600020600082825461150e919061329f565b92505081905550816002600083815260200190815260200160002060006101000a81548173ffffffffffffffffffffffffffffffffffffffff021916908373ffffffffffffffffffffffffffffffffffffffff160217905550808273ffffffffffffffffffffffffffffffffffffffff168473ffffffffffffffffffffffffffffffffffffffff167fddf252ad1be2c89b69c2b068fc378daa952ba7f163c4a11628f55a4df523b3ef60405160405180910390a46115cd838383611c40565b505050565b600081600001549050919050565b606060008251905060008114156116095760405180602001604052806000815250915050611773565b6000600360028361161a919061329f565b61162491906132f5565b60046116309190613326565b90506000602082611641919061329f565b67ffffffffffffffff81111561165a5761165961249d565b5b6040519080825280601f01601f19166020018201604052801561168c5781602001600182028036833780820191505090505b50905060006040518060600160405280604081526020016137be604091399050600181016020830160005b868110156117305760038101905062ffffff818a015116603f8160121c168401518060081b905060ff603f83600c1c1686015116810190508060081b905060ff603f8360061c1686015116810190508060081b905060ff603f831686015116810190508060e01b905080845260048401935050506116b7565b50600386066001811461174a576002811461175a57611765565b613d3d60f01b6002830352611765565b603d60f81b60018303525b508484525050819450505050505b919050565b611792828260405180602001604052806000815250611c45565b5050565b61179f82611160565b6117de576040517f08c379a00000000000000000000000000000000000000000000000000000000081526004016117d5906133f2565b60405180910390fd5b80600660008481526020019081526020016000209080519060200190611805929190612025565b505050565b6001816000016000828254019250508190555050565b60606000821415611868576040518060400160405280600181526020017f3000000000000000000000000000000000000000000000000000000000000000815250905061197c565b600082905060005b6000821461189a57808061188390613412565b915050600a8261189391906132f5565b9150611870565b60008167ffffffffffffffff8111156118b6576118b561249d565b5b6040519080825280601f01601f1916602001820160405280156118e85781602001600182028036833780820191505090505b5090505b6000851461197557600182611901919061326b565b9150600a856119109190612d70565b603061191c919061329f565b60f81b81838151811061193257611931612da1565b5b60200101907effffffffffffffffffffffffffffffffffffffffffffffffffffffffffffff1916908160001a905350600a8561196e91906132f5565b94506118ec565b8093505050505b919050565b600081604051602001611994919061345b565b6040516020818303038152906040528051906020012060001c9050919050565b8173ffffffffffffffffffffffffffffffffffffffff168373ffffffffffffffffffffffffffffffffffffffff161415611a23576040517f08c379a0000000000000000000000000000000000000000000000000000000008152600401611a1a906134be565b60405180910390fd5b80600560008573ffffffffffffffffffffffffffffffffffffffff1673ffffffffffffffffffffffffffffffffffffffff16815260200190815260200160002060008473ffffffffffffffffffffffffffffffffffffffff1673ffffffffffffffffffffffffffffffffffffffff16815260200190815260200160002060006101000a81548160ff0219169083151502179055508173ffffffffffffffffffffffffffffffffffffffff168373ffffffffffffffffffffffffffffffffffffffff167f17307eab39ab6107e8899845ad3d59bd9653f200f220920489ca2b5937696c3183604051611b14919061217c565b60405180910390a3505050565b611b2c84848461136b565b611b3884848484611ca0565b611b77576040517f08c379a0000000000000000000000000000000000000000000000000000000008152600401611b6e90613550565b60405180910390fd5b50505050565b606060405180602001604052806000815250905090565b6060611b9f82611160565b611bde576040517f08c379a0000000000000000000000000000000000000000000000000000000008152600401611bd5906135e2565b60405180910390fd5b6000611be8611b7d565b90506000815111611c085760405180602001604052806000815250611c33565b80611c1284611820565b604051602001611c23929190612ff4565b6040516020818303038152906040525b915050919050565b505050565b505050565b611c4f8383611e28565b611c5c6000848484611ca0565b611c9b576040517f08c379a0000000000000000000000000000000000000000000000000000000008152600401611c9290613550565b60405180910390fd5b505050565b6000611cc18473ffffffffffffffffffffffffffffffffffffffff16612002565b15611e1b578373ffffffffffffffffffffffffffffffffffffffff1663150b7a02611cea6111cc565b8786866040518563ffffffff1660e01b8152600401611d0c9493929190613657565b6020604051808303816000875af1925050508015611d4857506040513d601f19601f82011682018060405250810190611d4591906136b8565b60015b611dcb573d8060008114611d78576040519150601f19603f3d011682016040523d82523d6000602084013e611d7d565b606091505b50600081511415611dc3576040517f08c379a0000000000000000000000000000000000000000000000000000000008152600401611dba90613550565b60405180910390fd5b805181602001fd5b63150b7a0260e01b7bffffffffffffffffffffffffffffffffffffffffffffffffffffffff1916817bffffffffffffffffffffffffffffffffffffffffffffffffffffffff191614915050611e20565b600190505b949350505050565b600073ffffffffffffffffffffffffffffffffffffffff168273ffffffffffffffffffffffffffffffffffffffff161415611e98576040517f08c379a0000000000000000000000000000000000000000000000000000000008152600401611e8f90613731565b60405180910390fd5b611ea181611160565b15611ee1576040517f08c379a0000000000000000000000000000000000000000000000000000000008152600401611ed89061379d565b60405180910390fd5b611eed60008383611c3b565b6001600360008473ffffffffffffffffffffffffffffffffffffffff1673ffffffffffffffffffffffffffffffffffffffff1681526020019081526020016000206000828254611f3d919061329f565b92505081905550816002600083815260200190815260200160002060006101000a81548173ffffffffffffffffffffffffffffffffffffffff021916908373ffffffffffffffffffffffffffffffffffffffff160217905550808273ffffffffffffffffffffffffffffffffffffffff16600073ffffffffffffffffffffffffffffffffffffffff167fddf252ad1be2c89b69c2b068fc378daa952ba7f163c4a11628f55a4df523b3ef60405160405180910390a4611ffe60008383611c40565b5050565b6000808273ffffffffffffffffffffffffffffffffffffffff163b119050919050565b828054612031906126ba565b90600052602060002090601f016020900481019282612053576000855561209a565b82601f1061206c57805160ff191683800117855561209a565b8280016001018555821561209a579182015b8281111561209957825182559160200191906001019061207e565b5b5090506120a791906120ab565b5090565b5b808211156120c45760008160009055506001016120ac565b5090565b6000604051905090565b600080fd5b600080fd5b60007fffffffff0000000000000000000000000000000000000000000000000000000082169050919050565b612111816120dc565b811461211c57600080fd5b50565b60008135905061212e81612108565b92915050565b60006020828403121561214a576121496120d2565b5b60006121588482850161211f565b91505092915050565b60008115159050919050565b61217681612161565b82525050565b6000602082019050612191600083018461216d565b92915050565b600081519050919050565b600082825260208201905092915050565b60005b838110156121d15780820151818401526020810190506121b6565b838111156121e0576000848401525b50505050565b6000601f19601f8301169050919050565b600061220282612197565b61220c81856121a2565b935061221c8185602086016121b3565b612225816121e6565b840191505092915050565b6000602082019050818103600083015261224a81846121f7565b905092915050565b6000819050919050565b61226581612252565b811461227057600080fd5b50565b6000813590506122828161225c565b92915050565b60006020828403121561229e5761229d6120d2565b5b60006122ac84828501612273565b91505092915050565b600073ffffffffffffffffffffffffffffffffffffffff82169050919050565b60006122e0826122b5565b9050919050565b6122f0816122d5565b82525050565b600060208201905061230b60008301846122e7565b92915050565b61231a816122d5565b811461232557600080fd5b50565b60008135905061233781612311565b92915050565b60008060408385031215612354576123536120d2565b5b600061236285828601612328565b925050602061237385828601612273565b9150509250929050565b600080600060608486031215612396576123956120d2565b5b60006123a486828701612328565b93505060206123b586828701612328565b92505060406123c686828701612273565b9150509250925092565b6123d981612252565b82525050565b60006020820190506123f460008301846123d0565b92915050565b6000602082840312156124105761240f6120d2565b5b600061241e84828501612328565b91505092915050565b61243081612161565b811461243b57600080fd5b50565b60008135905061244d81612427565b92915050565b6000806040838503121561246a576124696120d2565b5b600061247885828601612328565b92505060206124898582860161243e565b9150509250929050565b600080fd5b600080fd5b7f4e487b7100000000000000000000000000000000000000000000000000000000600052604160045260246000fd5b6124d5826121e6565b810181811067ffffffffffffffff821117156124f4576124f361249d565b5b80604052505050565b60006125076120c8565b905061251382826124cc565b919050565b600067ffffffffffffffff8211156125335761253261249d565b5b61253c826121e6565b9050602081019050919050565b82818337600083830152505050565b600061256b61256684612518565b6124fd565b90508281526020810184848401111561258757612586612498565b5b612592848285612549565b509392505050565b600082601f8301126125af576125ae612493565b5b81356125bf848260208601612558565b91505092915050565b600080600080608085870312156125e2576125e16120d2565b5b60006125f087828801612328565b945050602061260187828801612328565b935050604061261287828801612273565b925050606085013567ffffffffffffffff811115612633576126326120d7565b5b61263f8782880161259a565b91505092959194509250565b60008060408385031215612662576126616120d2565b5b600061267085828601612328565b925050602061268185828601612328565b9150509250929050565b7f4e487b7100000000000000000000000000000000000000000000000000000000600052602260045260246000fd5b600060028204905060018216806126d257607f821691505b602082108114156126e6576126e561268b565b5b50919050565b7f4552433732313a20617070726f76656420717565727920666f72206e6f6e657860008201527f697374656e7420746f6b656e0000000000000000000000000000000000000000602082015250565b6000612748602c836121a2565b9150612753826126ec565b604082019050919050565b600060208201905081810360008301526127778161273b565b9050919050565b7f4552433732313a20617070726f76616c20746f2063757272656e74206f776e6560008201527f7200000000000000000000000000000000000000000000000000000000000000602082015250565b60006127da6021836121a2565b91506127e58261277e565b604082019050919050565b60006020820190508181036000830152612809816127cd565b9050919050565b7f4552433732313a20617070726f76652063616c6c6572206973206e6f74206f7760008201527f6e6572206e6f7220617070726f76656420666f7220616c6c0000000000000000602082015250565b600061286c6038836121a2565b915061287782612810565b604082019050919050565b6000602082019050818103600083015261289b8161285f565b9050919050565b7f4552433732313a207472616e736665722063616c6c6572206973206e6f74206f60008201527f776e6572206e6f7220617070726f766564000000000000000000000000000000602082015250565b60006128fe6031836121a2565b9150612909826128a2565b604082019050919050565b6000602082019050818103600083015261292d816128f1565b9050919050565b600081905092915050565b600061294a82612197565b6129548185612934565b93506129648185602086016121b3565b80840191505092915050565b600061297c828661293f565b9150612988828561293f565b9150612994828461293f565b9150819050949350505050565b60008190508160005260206000209050919050565b600081546129c3816126ba565b6129cd8186612934565b945060018216600081146129e857600181146129f957612a2c565b60ff19831686528186019350612a2c565b612a02856129a1565b60005b83811015612a2457815481890152600182019150602081019050612a05565b838801955050505b50505092915050565b7f3c2f746578743e3c2f7376673e00000000000000000000000000000000000000600082015250565b6000612a6b600d83612934565b9150612a7682612a35565b600d82019050919050565b6000612a8d82876129b6565b9150612a99828661293f565b9150612aa5828561293f565b9150612ab1828461293f565b9150612abc82612a5e565b915081905095945050505050565b7f7b226e616d65223a202200000000000000000000000000000000000000000000600082015250565b6000612b00600a83612934565b9150612b0b82612aca565b600a82019050919050565b7f222c20226465736372697074696f6e223a20224120686967686c79206163636c60008201527f61696d656420636f6c6c656374696f6e20457465726e616c2057617272696f7260208201527f73222c2022696d616765223a2022646174613a696d6167652f7376672b786d6c60408201527f3b6261736536342c000000000000000000000000000000000000000000000000606082015250565b6000612bbe606883612934565b9150612bc982612b16565b606882019050919050565b7f227d000000000000000000000000000000000000000000000000000000000000600082015250565b6000612c0a600283612934565b9150612c1582612bd4565b600282019050919050565b6000612c2b82612af3565b9150612c37828561293f565b9150612c4282612bb1565b9150612c4e828461293f565b9150612c5982612bfd565b91508190509392505050565b7f646174613a6170706c69636174696f6e2f6a736f6e3b6261736536342c000000600082015250565b6000612c9b601d83612934565b9150612ca682612c65565b601d82019050919050565b6000612cbc82612c8e565b9150612cc8828461293f565b915081905092915050565b7f656c656d656e7400000000000000000000000000000000000000000000000000600082015250565b6000612d09600783612934565b9150612d1482612cd3565b600782019050919050565b6000612d2a82612cfc565b9150612d36828461293f565b915081905092915050565b7f4e487b7100000000000000000000000000000000000000000000000000000000600052601260045260246000fd5b6000612d7b82612252565b9150612d8683612252565b925082612d9657612d95612d41565b5b828206905092915050565b7f4e487b7100000000000000000000000000000000000000000000000000000000600052603260045260246000fd5b7f4552433732313a206f776e657220717565727920666f72206e6f6e657869737460008201527f656e7420746f6b656e0000000000000000000000000000000000000000000000602082015250565b6000612e2c6029836121a2565b9150612e3782612dd0565b604082019050919050565b60006020820190508181036000830152612e5b81612e1f565b9050919050565b7f4552433732313a2062616c616e636520717565727920666f7220746865207a6560008201527f726f206164647265737300000000000000000000000000000000000000000000602082015250565b6000612ebe602a836121a2565b9150612ec982612e62565b604082019050919050565b60006020820190508181036000830152612eed81612eb1565b9050919050565b7f776561706f6e0000000000000000000000000000000000000000000000000000600082015250565b6000612f2a600683612934565b9150612f3582612ef4565b600682019050919050565b6000612f4b82612f1d565b9150612f57828461293f565b915081905092915050565b7f45524337323155524953746f726167653a2055524920717565727920666f722060008201527f6e6f6e6578697374656e7420746f6b656e000000000000000000000000000000602082015250565b6000612fbe6031836121a2565b9150612fc982612f62565b604082019050919050565b60006020820190508181036000830152612fed81612fb1565b9050919050565b6000613000828561293f565b915061300c828461293f565b91508190509392505050565b7f72616e6b00000000000000000000000000000000000000000000000000000000600082015250565b600061304e600483612934565b915061305982613018565b600482019050919050565b600061306f82613041565b915061307b828461293f565b915081905092915050565b7f4552433732313a206f70657261746f7220717565727920666f72206e6f6e657860008201527f697374656e7420746f6b656e0000000000000000000000000000000000000000602082015250565b60006130e2602c836121a2565b91506130ed82613086565b604082019050919050565b60006020820190508181036000830152613111816130d5565b9050919050565b7f4552433732313a207472616e736665722066726f6d20696e636f72726563742060008201527f6f776e6572000000000000000000000000000000000000000000000000000000602082015250565b60006131746025836121a2565b915061317f82613118565b604082019050919050565b600060208201905081810360008301526131a381613167565b9050919050565b7f4552433732313a207472616e7366657220746f20746865207a65726f2061646460008201527f7265737300000000000000000000000000000000000000000000000000000000602082015250565b60006132066024836121a2565b9150613211826131aa565b604082019050919050565b60006020820190508181036000830152613235816131f9565b9050919050565b7f4e487b7100000000000000000000000000000000000000000000000000000000600052601160045260246000fd5b600061327682612252565b915061328183612252565b9250828210156132945761329361323c565b5b828203905092915050565b60006132aa82612252565b91506132b583612252565b9250827fffffffffffffffffffffffffffffffffffffffffffffffffffffffffffffffff038211156132ea576132e961323c565b5b828201905092915050565b600061330082612252565b915061330b83612252565b92508261331b5761331a612d41565b5b828204905092915050565b600061333182612252565b915061333c83612252565b9250817fffffffffffffffffffffffffffffffffffffffffffffffffffffffffffffffff04831182151516156133755761337461323c565b5b828202905092915050565b7f45524337323155524953746f726167653a2055524920736574206f66206e6f6e60008201527f6578697374656e7420746f6b656e000000000000000000000000000000000000602082015250565b60006133dc602e836121a2565b91506133e782613380565b604082019050919050565b6000602082019050818103600083015261340b816133cf565b9050919050565b600061341d82612252565b91507fffffffffffffffffffffffffffffffffffffffffffffffffffffffffffffffff8214156134505761344f61323c565b5b600182019050919050565b6000613467828461293f565b915081905092915050565b7f4552433732313a20617070726f766520746f2063616c6c657200000000000000600082015250565b60006134a86019836121a2565b91506134b382613472565b602082019050919050565b600060208201905081810360008301526134d78161349b565b9050919050565b7f4552433732313a207472616e7366657220746f206e6f6e20455243373231526560008201527f63656976657220696d706c656d656e7465720000000000000000000000000000602082015250565b600061353a6032836121a2565b9150613545826134de565b604082019050919050565b600060208201905081810360008301526135698161352d565b9050919050565b7f4552433732314d657461646174613a2055524920717565727920666f72206e6f60008201527f6e6578697374656e7420746f6b656e0000000000000000000000000000000000602082015250565b60006135cc602f836121a2565b91506135d782613570565b604082019050919050565b600060208201905081810360008301526135fb816135bf565b9050919050565b600081519050919050565b600082825260208201905092915050565b600061362982613602565b613633818561360d565b93506136438185602086016121b3565b61364c816121e6565b840191505092915050565b600060808201905061366c60008301876122e7565b61367960208301866122e7565b61368660408301856123d0565b8181036060830152613698818461361e565b905095945050505050565b6000815190506136b281612108565b92915050565b6000602082840312156136ce576136cd6120d2565b5b60006136dc848285016136a3565b91505092915050565b7f4552433732313a206d696e7420746f20746865207a65726f2061646472657373600082015250565b600061371b6020836121a2565b9150613726826136e5565b602082019050919050565b6000602082019050818103600083015261374a8161370e565b9050919050565b7f4552433732313a20746f6b656e20616c7265616479206d696e74656400000000600082015250565b6000613787601c836121a2565b915061379282613751565b602082019050919050565b600060208201905081810360008301526137b68161377a565b905091905056fe4142434445464748494a4b4c4d4e4f505152535455565758595a6162636465666768696a6b6c6d6e6f707172737475767778797a303132333435363738392b2fa2646970667358221220504e0cea5d6ea2362ca9a43607867153260ed39be3d03dd0ae30a8c27524b50964736f6c634300080c00333c73766720786d6c6e733d27687474703a2f2f7777772e77332e6f72672f323030302f73766727207072657365727665417370656374526174696f3d27784d696e594d696e206d656574272076696577426f783d273020302033353020333530273e3c7374796c653e2e62617365207b2066696c6c3a2077686974653b20666f6e742d66616d696c793a2073657269663b20666f6e742d73697a653a20323470783b207d3c2f7374796c653e3c726563742077696474683d273130302527206865696768743d2731303025272066696c6c3d27626c61636b27202f3e3c7465787420783d273530252720793d273530252720636c6173733d27626173652720646f6d696e616e742d626173656c696e653d276d6964646c652720746578742d616e63686f723d276d6964646c65273e",
  "linkReferences": {},
  "deployedLinkReferences": {}
}